{
  "_format": "hh-sol-artifact-1",
  "contractName": "PaintingAuction",
  "sourceName": "contracts/PaintingAuction.sol",
  "abi": [
    {
      "inputs": [
        {
          "internalType": "string",
          "name": "name",
          "type": "string"
        },
        {
          "internalType": "string",
          "name": "symbol",
          "type": "string"
        },
        {
          "internalType": "uint256",
          "name": "_durationInSeconds",
          "type": "uint256"
        }
      ],
      "stateMutability": "nonpayable",
      "type": "constructor"
    },
    {
      "inputs": [
        {
          "internalType": "address",
          "name": "sender",
          "type": "address"
        },
        {
          "internalType": "uint256",
          "name": "tokenId",
          "type": "uint256"
        },
        {
          "internalType": "address",
          "name": "owner",
          "type": "address"
        }
      ],
      "name": "ERC721IncorrectOwner",
      "type": "error"
    },
    {
      "inputs": [
        {
          "internalType": "address",
          "name": "operator",
          "type": "address"
        },
        {
          "internalType": "uint256",
          "name": "tokenId",
          "type": "uint256"
        }
      ],
      "name": "ERC721InsufficientApproval",
      "type": "error"
    },
    {
      "inputs": [
        {
          "internalType": "address",
          "name": "approver",
          "type": "address"
        }
      ],
      "name": "ERC721InvalidApprover",
      "type": "error"
    },
    {
      "inputs": [
        {
          "internalType": "address",
          "name": "operator",
          "type": "address"
        }
      ],
      "name": "ERC721InvalidOperator",
      "type": "error"
    },
    {
      "inputs": [
        {
          "internalType": "address",
          "name": "owner",
          "type": "address"
        }
      ],
      "name": "ERC721InvalidOwner",
      "type": "error"
    },
    {
      "inputs": [
        {
          "internalType": "address",
          "name": "receiver",
          "type": "address"
        }
      ],
      "name": "ERC721InvalidReceiver",
      "type": "error"
    },
    {
      "inputs": [
        {
          "internalType": "address",
          "name": "sender",
          "type": "address"
        }
      ],
      "name": "ERC721InvalidSender",
      "type": "error"
    },
    {
      "inputs": [
        {
          "internalType": "uint256",
          "name": "tokenId",
          "type": "uint256"
        }
      ],
      "name": "ERC721NonexistentToken",
      "type": "error"
    },
    {
      "inputs": [],
      "name": "ReentrancyGuardReentrantCall",
      "type": "error"
    },
    {
      "anonymous": false,
      "inputs": [
        {
          "indexed": true,
          "internalType": "address",
          "name": "owner",
          "type": "address"
        },
        {
          "indexed": true,
          "internalType": "address",
          "name": "approved",
          "type": "address"
        },
        {
          "indexed": true,
          "internalType": "uint256",
          "name": "tokenId",
          "type": "uint256"
        }
      ],
      "name": "Approval",
      "type": "event"
    },
    {
      "anonymous": false,
      "inputs": [
        {
          "indexed": true,
          "internalType": "address",
          "name": "owner",
          "type": "address"
        },
        {
          "indexed": true,
          "internalType": "address",
          "name": "operator",
          "type": "address"
        },
        {
          "indexed": false,
          "internalType": "bool",
          "name": "approved",
          "type": "bool"
        }
      ],
      "name": "ApprovalForAll",
      "type": "event"
    },
    {
      "anonymous": false,
      "inputs": [
        {
          "indexed": false,
          "internalType": "address",
          "name": "winner",
          "type": "address"
        },
        {
          "indexed": false,
          "internalType": "uint256",
          "name": "amount",
          "type": "uint256"
        }
      ],
      "name": "AuctionEnded",
      "type": "event"
    },
    {
      "anonymous": false,
      "inputs": [
        {
          "indexed": false,
          "internalType": "uint256",
          "name": "_fromTokenId",
          "type": "uint256"
        },
        {
          "indexed": false,
          "internalType": "uint256",
          "name": "_toTokenId",
          "type": "uint256"
        }
      ],
      "name": "BatchMetadataUpdate",
      "type": "event"
    },
    {
      "anonymous": false,
      "inputs": [
        {
          "indexed": true,
          "internalType": "address",
          "name": "bidder",
          "type": "address"
        },
        {
          "indexed": false,
          "internalType": "uint256",
          "name": "amount",
          "type": "uint256"
        }
      ],
      "name": "BidPlaced",
      "type": "event"
    },
    {
      "anonymous": false,
      "inputs": [
        {
          "indexed": true,
          "internalType": "address",
          "name": "bidder",
          "type": "address"
        },
        {
          "indexed": false,
          "internalType": "uint256",
          "name": "amount",
          "type": "uint256"
        }
      ],
      "name": "FundsWithdrawn",
      "type": "event"
    },
    {
      "anonymous": false,
      "inputs": [
        {
          "indexed": false,
          "internalType": "uint256",
          "name": "_tokenId",
          "type": "uint256"
        }
      ],
      "name": "MetadataUpdate",
      "type": "event"
    },
    {
      "anonymous": false,
      "inputs": [
        {
          "indexed": true,
          "internalType": "address",
          "name": "to",
          "type": "address"
        },
        {
          "indexed": false,
          "internalType": "uint256",
          "name": "tokenId",
          "type": "uint256"
        }
      ],
      "name": "NFTMinted",
      "type": "event"
    },
    {
      "anonymous": false,
      "inputs": [
        {
          "indexed": true,
          "internalType": "address",
          "name": "from",
          "type": "address"
        },
        {
          "indexed": true,
          "internalType": "address",
          "name": "to",
          "type": "address"
        },
        {
          "indexed": true,
          "internalType": "uint256",
          "name": "tokenId",
          "type": "uint256"
        }
      ],
      "name": "Transfer",
      "type": "event"
    },
    {
      "inputs": [
        {
          "internalType": "address",
          "name": "to",
          "type": "address"
        },
        {
          "internalType": "uint256",
          "name": "tokenId",
          "type": "uint256"
        }
      ],
      "name": "approve",
      "outputs": [],
      "stateMutability": "nonpayable",
      "type": "function"
    },
    {
      "inputs": [],
      "name": "auctionEnded",
      "outputs": [
        {
          "internalType": "bool",
          "name": "",
          "type": "bool"
        }
      ],
      "stateMutability": "view",
      "type": "function"
    },
    {
      "inputs": [
        {
          "internalType": "address",
          "name": "owner",
          "type": "address"
        }
      ],
      "name": "balanceOf",
      "outputs": [
        {
          "internalType": "uint256",
          "name": "",
          "type": "uint256"
        }
      ],
      "stateMutability": "view",
      "type": "function"
    },
    {
      "inputs": [],
      "name": "bid",
      "outputs": [],
      "stateMutability": "payable",
      "type": "function"
    },
    {
      "inputs": [
        {
          "internalType": "address",
          "name": "",
          "type": "address"
        }
      ],
      "name": "bids",
      "outputs": [
        {
          "internalType": "uint256",
          "name": "",
          "type": "uint256"
        }
      ],
      "stateMutability": "view",
      "type": "function"
    },
    {
      "inputs": [],
      "name": "endAuction",
      "outputs": [],
      "stateMutability": "nonpayable",
      "type": "function"
    },
    {
      "inputs": [],
      "name": "endTime",
      "outputs": [
        {
          "internalType": "uint256",
          "name": "",
          "type": "uint256"
        }
      ],
      "stateMutability": "view",
      "type": "function"
    },
    {
      "inputs": [
        {
          "internalType": "uint256",
          "name": "tokenId",
          "type": "uint256"
        }
      ],
      "name": "getApproved",
      "outputs": [
        {
          "internalType": "address",
          "name": "",
          "type": "address"
        }
      ],
      "stateMutability": "view",
      "type": "function"
    },
    {
      "inputs": [
        {
          "internalType": "uint256",
          "name": "offset",
          "type": "uint256"
        },
        {
          "internalType": "uint256",
          "name": "limit",
          "type": "uint256"
        }
      ],
      "name": "getBidders",
      "outputs": [
        {
          "internalType": "address[]",
          "name": "",
          "type": "address[]"
        },
        {
          "internalType": "uint256",
          "name": "nextOffset",
          "type": "uint256"
        },
        {
          "internalType": "uint256",
          "name": "totalBidders",
          "type": "uint256"
        }
      ],
      "stateMutability": "view",
      "type": "function"
    },
    {
      "inputs": [
        {
          "internalType": "address",
          "name": "owner",
          "type": "address"
        },
        {
          "internalType": "address",
          "name": "operator",
          "type": "address"
        }
      ],
      "name": "isApprovedForAll",
      "outputs": [
        {
          "internalType": "bool",
          "name": "",
          "type": "bool"
        }
      ],
      "stateMutability": "view",
      "type": "function"
    },
    {
      "inputs": [
        {
          "internalType": "string",
          "name": "tokenURI",
          "type": "string"
        }
      ],
      "name": "mintNFT",
      "outputs": [],
      "stateMutability": "nonpayable",
      "type": "function"
    },
    {
      "inputs": [],
      "name": "name",
      "outputs": [
        {
          "internalType": "string",
          "name": "",
          "type": "string"
        }
      ],
      "stateMutability": "view",
      "type": "function"
    },
    {
      "inputs": [],
      "name": "nftMinted",
      "outputs": [
        {
          "internalType": "bool",
          "name": "",
          "type": "bool"
        }
      ],
      "stateMutability": "view",
      "type": "function"
    },
    {
      "inputs": [
        {
          "internalType": "uint256",
          "name": "tokenId",
          "type": "uint256"
        }
      ],
      "name": "ownerOf",
      "outputs": [
        {
          "internalType": "address",
          "name": "",
          "type": "address"
        }
      ],
      "stateMutability": "view",
      "type": "function"
    },
    {
      "inputs": [
        {
          "internalType": "address",
          "name": "from",
          "type": "address"
        },
        {
          "internalType": "address",
          "name": "to",
          "type": "address"
        },
        {
          "internalType": "uint256",
          "name": "tokenId",
          "type": "uint256"
        }
      ],
      "name": "safeTransferFrom",
      "outputs": [],
      "stateMutability": "nonpayable",
      "type": "function"
    },
    {
      "inputs": [
        {
          "internalType": "address",
          "name": "from",
          "type": "address"
        },
        {
          "internalType": "address",
          "name": "to",
          "type": "address"
        },
        {
          "internalType": "uint256",
          "name": "tokenId",
          "type": "uint256"
        },
        {
          "internalType": "bytes",
          "name": "data",
          "type": "bytes"
        }
      ],
      "name": "safeTransferFrom",
      "outputs": [],
      "stateMutability": "nonpayable",
      "type": "function"
    },
    {
      "inputs": [
        {
          "internalType": "address",
          "name": "operator",
          "type": "address"
        },
        {
          "internalType": "bool",
          "name": "approved",
          "type": "bool"
        }
      ],
      "name": "setApprovalForAll",
      "outputs": [],
      "stateMutability": "nonpayable",
      "type": "function"
    },
    {
      "inputs": [
        {
          "internalType": "bytes4",
          "name": "interfaceId",
          "type": "bytes4"
        }
      ],
      "name": "supportsInterface",
      "outputs": [
        {
          "internalType": "bool",
          "name": "",
          "type": "bool"
        }
      ],
      "stateMutability": "view",
      "type": "function"
    },
    {
      "inputs": [],
      "name": "symbol",
      "outputs": [
        {
          "internalType": "string",
          "name": "",
          "type": "string"
        }
      ],
      "stateMutability": "view",
      "type": "function"
    },
    {
      "inputs": [],
      "name": "tokenId",
      "outputs": [
        {
          "internalType": "uint256",
          "name": "",
          "type": "uint256"
        }
      ],
      "stateMutability": "view",
      "type": "function"
    },
    {
      "inputs": [
        {
          "internalType": "uint256",
          "name": "tokenId",
          "type": "uint256"
        }
      ],
      "name": "tokenURI",
      "outputs": [
        {
          "internalType": "string",
          "name": "",
          "type": "string"
        }
      ],
      "stateMutability": "view",
      "type": "function"
    },
    {
      "inputs": [
        {
          "internalType": "address",
          "name": "from",
          "type": "address"
        },
        {
          "internalType": "address",
          "name": "to",
          "type": "address"
        },
        {
          "internalType": "uint256",
          "name": "tokenId",
          "type": "uint256"
        }
      ],
      "name": "transferFrom",
      "outputs": [],
      "stateMutability": "nonpayable",
      "type": "function"
    },
    {
      "inputs": [],
      "name": "winner",
      "outputs": [
        {
          "internalType": "address",
          "name": "",
          "type": "address"
        }
      ],
      "stateMutability": "view",
      "type": "function"
    },
    {
      "inputs": [],
      "name": "withdraw",
      "outputs": [],
      "stateMutability": "nonpayable",
      "type": "function"
    },
    {
      "stateMutability": "payable",
      "type": "receive"
    }
  ],
  "bytecode": "0x60806040523480156200001157600080fd5b5060405162003beb38038062003beb833981810160405281019062000037919062000252565b828281600090816200004a91906200052d565b5080600190816200005c91906200052d565b5050506001600781905550804262000075919062000643565b6008819055505050506200067e565b6000604051905090565b600080fd5b600080fd5b600080fd5b600080fd5b6000601f19601f8301169050919050565b7f4e487b7100000000000000000000000000000000000000000000000000000000600052604160045260246000fd5b620000ed82620000a2565b810181811067ffffffffffffffff821117156200010f576200010e620000b3565b5b80604052505050565b60006200012462000084565b9050620001328282620000e2565b919050565b600067ffffffffffffffff821115620001555762000154620000b3565b5b6200016082620000a2565b9050602081019050919050565b60005b838110156200018d57808201518184015260208101905062000170565b60008484015250505050565b6000620001b0620001aa8462000137565b62000118565b905082815260208101848484011115620001cf57620001ce6200009d565b5b620001dc8482856200016d565b509392505050565b600082601f830112620001fc57620001fb62000098565b5b81516200020e84826020860162000199565b91505092915050565b6000819050919050565b6200022c8162000217565b81146200023857600080fd5b50565b6000815190506200024c8162000221565b92915050565b6000806000606084860312156200026e576200026d6200008e565b5b600084015167ffffffffffffffff8111156200028f576200028e62000093565b5b6200029d86828701620001e4565b935050602084015167ffffffffffffffff811115620002c157620002c062000093565b5b620002cf86828701620001e4565b9250506040620002e2868287016200023b565b9150509250925092565b600081519050919050565b7f4e487b7100000000000000000000000000000000000000000000000000000000600052602260045260246000fd5b600060028204905060018216806200033f57607f821691505b602082108103620003555762000354620002f7565b5b50919050565b60008190508160005260206000209050919050565b60006020601f8301049050919050565b600082821b905092915050565b600060088302620003bf7fffffffffffffffffffffffffffffffffffffffffffffffffffffffffffffffff8262000380565b620003cb868362000380565b95508019841693508086168417925050509392505050565b6000819050919050565b60006200040e62000408620004028462000217565b620003e3565b62000217565b9050919050565b6000819050919050565b6200042a83620003ed565b62000442620004398262000415565b8484546200038d565b825550505050565b600090565b620004596200044a565b620004668184846200041f565b505050565b5b818110156200048e57620004826000826200044f565b6001810190506200046c565b5050565b601f821115620004dd57620004a7816200035b565b620004b28462000370565b81016020851015620004c2578190505b620004da620004d18562000370565b8301826200046b565b50505b505050565b600082821c905092915050565b60006200050260001984600802620004e2565b1980831691505092915050565b60006200051d8383620004ef565b9150826002028217905092915050565b6200053882620002ec565b67ffffffffffffffff811115620005545762000553620000b3565b5b62000560825462000326565b6200056d82828562000492565b600060209050601f831160018114620005a5576000841562000590578287015190505b6200059c85826200050f565b8655506200060c565b601f198416620005b5866200035b565b60005b82811015620005df57848901518255600182019150602085019450602081019050620005b8565b86831015620005ff5784890151620005fb601f891682620004ef565b8355505b6001600288020188555050505b505050505050565b7f4e487b7100000000000000000000000000000000000000000000000000000000600052601160045260246000fd5b6000620006508262000217565b91506200065d8362000217565b925082820190508082111562000678576200067762000614565b5b92915050565b61355d806200068e6000396000f3fe60806040526004361061014f5760003560e01c80636352211e116100b6578063b88d4fde1161006f578063b88d4fde1461049a578063c87b56dd146104c3578063dfbf53ae14610500578063e985e9c51461052b578063fb37e88314610568578063fe67a54b146105915761015e565b80636352211e1461036257806370a082311461039f57806386433374146103dc5780638a828b081461040757806395d89b4114610446578063a22cb465146104715761015e565b806323b872dd1161010857806323b872dd146102665780633197cbb61461028f5780633651f5e4146102ba5780633ccfd60b146102e557806342842e0e146102fc57806362ea82db146103255761015e565b806301ffc9a71461016357806306fdde03146101a0578063081812fc146101cb578063095ea7b31461020857806317d70f7c146102315780631998aeef1461025c5761015e565b3661015e5761015c6105a8565b005b600080fd5b34801561016f57600080fd5b5061018a60048036038101906101859190612495565b610780565b60405161019791906124dd565b60405180910390f35b3480156101ac57600080fd5b506101b56107e1565b6040516101c29190612588565b60405180910390f35b3480156101d757600080fd5b506101f260048036038101906101ed91906125e0565b610873565b6040516101ff919061264e565b60405180910390f35b34801561021457600080fd5b5061022f600480360381019061022a9190612695565b61088f565b005b34801561023d57600080fd5b506102466108a5565b60405161025391906126e4565b60405180910390f35b6102646105a8565b005b34801561027257600080fd5b5061028d600480360381019061028891906126ff565b6108ab565b005b34801561029b57600080fd5b506102a46109ad565b6040516102b191906126e4565b60405180910390f35b3480156102c657600080fd5b506102cf6109b3565b6040516102dc91906124dd565b60405180910390f35b3480156102f157600080fd5b506102fa6109c6565b005b34801561030857600080fd5b50610323600480360381019061031e91906126ff565b610c0f565b005b34801561033157600080fd5b5061034c60048036038101906103479190612752565b610c2f565b60405161035991906126e4565b60405180910390f35b34801561036e57600080fd5b50610389600480360381019061038491906125e0565b610c47565b604051610396919061264e565b60405180910390f35b3480156103ab57600080fd5b506103c660048036038101906103c19190612752565b610c59565b6040516103d391906126e4565b60405180910390f35b3480156103e857600080fd5b506103f1610d13565b6040516103fe91906124dd565b60405180910390f35b34801561041357600080fd5b5061042e6004803603810190610429919061277f565b610d26565b60405161043d9392919061287d565b60405180910390f35b34801561045257600080fd5b5061045b610e7e565b6040516104689190612588565b60405180910390f35b34801561047d57600080fd5b50610498600480360381019061049391906128e7565b610f10565b005b3480156104a657600080fd5b506104c160048036038101906104bc9190612a5c565b610f26565b005b3480156104cf57600080fd5b506104ea60048036038101906104e591906125e0565b610f4b565b6040516104f79190612588565b60405180910390f35b34801561050c57600080fd5b5061051561105e565b604051610522919061264e565b60405180910390f35b34801561053757600080fd5b50610552600480360381019061054d9190612adf565b611084565b60405161055f91906124dd565b60405180910390f35b34801561057457600080fd5b5061058f600480360381019061058a9190612bc0565b611118565b005b34801561059d57600080fd5b506105a66112eb565b005b60085442106105ec576040517f08c379a00000000000000000000000000000000000000000000000000000000081526004016105e390612c55565b60405180910390fd5b6000341161062f576040517f08c379a000000000000000000000000000000000000000000000000000000000815260040161062690612cc1565b60405180910390fd5b6000600b60003373ffffffffffffffffffffffffffffffffffffffff1673ffffffffffffffffffffffffffffffffffffffff16815260200190815260200160002054036106da57600c339080600181540180825580915050600190039060005260206000200160009091909190916101000a81548173ffffffffffffffffffffffffffffffffffffffff021916908373ffffffffffffffffffffffffffffffffffffffff1602179055505b34600b60003373ffffffffffffffffffffffffffffffffffffffff1673ffffffffffffffffffffffffffffffffffffffff16815260200190815260200160002060008282546107299190612d10565b925050819055503373ffffffffffffffffffffffffffffffffffffffff167f3fabff0a9c3ecd6814702e247fa9733e5d0aa69e3a38590f92cb18f623a2254d3460405161077691906126e4565b60405180910390a2565b6000634906490660e01b7bffffffffffffffffffffffffffffffffffffffffffffffffffffffff1916827bffffffffffffffffffffffffffffffffffffffffffffffffffffffff191614806107da57506107d9826114f7565b5b9050919050565b6060600080546107f090612d73565b80601f016020809104026020016040519081016040528092919081815260200182805461081c90612d73565b80156108695780601f1061083e57610100808354040283529160200191610869565b820191906000526020600020905b81548152906001019060200180831161084c57829003601f168201915b5050505050905090565b600061087e826115d9565b5061088882611661565b9050919050565b6108a1828261089c61169e565b6116a6565b5050565b600a5481565b600073ffffffffffffffffffffffffffffffffffffffff168273ffffffffffffffffffffffffffffffffffffffff160361091d5760006040517f64a0ae92000000000000000000000000000000000000000000000000000000008152600401610914919061264e565b60405180910390fd5b6000610931838361092c61169e565b6116b8565b90508373ffffffffffffffffffffffffffffffffffffffff168173ffffffffffffffffffffffffffffffffffffffff16146109a7578382826040517f64283d7b00000000000000000000000000000000000000000000000000000000815260040161099e93929190612da4565b60405180910390fd5b50505050565b60085481565b600960159054906101000a900460ff1681565b600854421015610a0b576040517f08c379a0000000000000000000000000000000000000000000000000000000008152600401610a0290612e27565b60405180910390fd5b610a136118d2565b600960009054906101000a900473ffffffffffffffffffffffffffffffffffffffff1673ffffffffffffffffffffffffffffffffffffffff163373ffffffffffffffffffffffffffffffffffffffff1603610aa3576040517f08c379a0000000000000000000000000000000000000000000000000000000008152600401610a9a90612e93565b60405180910390fd5b6000600b60003373ffffffffffffffffffffffffffffffffffffffff1673ffffffffffffffffffffffffffffffffffffffff16815260200190815260200160002054905060008111610b2a576040517f08c379a0000000000000000000000000000000000000000000000000000000008152600401610b2190612eff565b60405180910390fd5b6000600b60003373ffffffffffffffffffffffffffffffffffffffff1673ffffffffffffffffffffffffffffffffffffffff168152602001908152602001600020819055503373ffffffffffffffffffffffffffffffffffffffff166108fc829081150290604051600060405180830381858888f19350505050158015610bb5573d6000803e3d6000fd5b503373ffffffffffffffffffffffffffffffffffffffff167feaff4b37086828766ad3268786972c0cd24259d4c87a80f9d3963a3c3d999b0d82604051610bfc91906126e4565b60405180910390a250610c0d611918565b565b610c2a83838360405180602001604052806000815250610f26565b505050565b600b6020528060005260406000206000915090505481565b6000610c52826115d9565b9050919050565b60008073ffffffffffffffffffffffffffffffffffffffff168273ffffffffffffffffffffffffffffffffffffffff1603610ccc5760006040517f89c62b64000000000000000000000000000000000000000000000000000000008152600401610cc3919061264e565b60405180910390fd5b600360008373ffffffffffffffffffffffffffffffffffffffff1673ffffffffffffffffffffffffffffffffffffffff168152602001908152602001600020549050919050565b600960149054906101000a900460ff1681565b6060600080600c805490509050600084905060008103610d4557600190505b8582610d519190612f1f565b811115610d67578582610d649190612f1f565b90505b60008167ffffffffffffffff811115610d8357610d82612931565b5b604051908082528060200260200182016040528015610db15781602001602082028036833780820191505090505b50905060005b82811015610e6357600c8189610dcd9190612d10565b81548110610dde57610ddd612f53565b5b9060005260206000200160009054906101000a900473ffffffffffffffffffffffffffffffffffffffff16828281518110610e1c57610e1b612f53565b5b602002602001019073ffffffffffffffffffffffffffffffffffffffff16908173ffffffffffffffffffffffffffffffffffffffff16815250508080600101915050610db7565b50808288610e719190612d10565b9450945050509250925092565b606060018054610e8d90612d73565b80601f0160208091040260200160405190810160405280929190818152602001828054610eb990612d73565b8015610f065780601f10610edb57610100808354040283529160200191610f06565b820191906000526020600020905b815481529060010190602001808311610ee957829003601f168201915b5050505050905090565b610f22610f1b61169e565b8383611922565b5050565b610f318484846108ab565b610f45610f3c61169e565b85858585611a91565b50505050565b6060610f56826115d9565b506000600660008481526020019081526020016000208054610f7790612d73565b80601f0160208091040260200160405190810160405280929190818152602001828054610fa390612d73565b8015610ff05780601f10610fc557610100808354040283529160200191610ff0565b820191906000526020600020905b815481529060010190602001808311610fd357829003601f168201915b505050505090506000611001611c42565b90506000815103611016578192505050611059565b60008251111561104b578082604051602001611033929190612fbe565b60405160208183030381529060405292505050611059565b61105484611c59565b925050505b919050565b600960009054906101000a900473ffffffffffffffffffffffffffffffffffffffff1681565b6000600560008473ffffffffffffffffffffffffffffffffffffffff1673ffffffffffffffffffffffffffffffffffffffff16815260200190815260200160002060008373ffffffffffffffffffffffffffffffffffffffff1673ffffffffffffffffffffffffffffffffffffffff16815260200190815260200160002060009054906101000a900460ff16905092915050565b60085442101561115d576040517f08c379a000000000000000000000000000000000000000000000000000000000815260040161115490612e27565b60405180910390fd5b6111656118d2565b600960009054906101000a900473ffffffffffffffffffffffffffffffffffffffff1673ffffffffffffffffffffffffffffffffffffffff163373ffffffffffffffffffffffffffffffffffffffff16146111f5576040517f08c379a00000000000000000000000000000000000000000000000000000000081526004016111ec9061302e565b60405180910390fd5b600960159054906101000a900460ff1615611245576040517f08c379a000000000000000000000000000000000000000000000000000000000815260040161123c9061309a565b60405180910390fd5b600a6000815480929190611258906130ba565b919050555061126933600a54611cc2565b611275600a5482611dbb565b6001600960156101000a81548160ff0219169083151502179055503373ffffffffffffffffffffffffffffffffffffffff167f4cc0a9c4a99ddc700de1af2c9f916a7cbfdb71f14801ccff94061ad1ef8a8040600a546040516112d891906126e4565b60405180910390a26112e8611918565b50565b600854421015611330576040517f08c379a000000000000000000000000000000000000000000000000000000000815260040161132790612e27565b60405180910390fd5b600960149054906101000a900460ff1615611380576040517f08c379a00000000000000000000000000000000000000000000000000000000081526004016113779061314e565b60405180910390fd5b60008080600090505b600c8054905081101561143b576000600c82815481106113ac576113ab612f53565b5b9060005260206000200160009054906101000a900473ffffffffffffffffffffffffffffffffffffffff1690506000600b60008373ffffffffffffffffffffffffffffffffffffffff1673ffffffffffffffffffffffffffffffffffffffff1681526020019081526020016000205490508481111561142c578094508193505b50508080600101915050611389565b506001600960146101000a81548160ff02191690831515021790555080600960006101000a81548173ffffffffffffffffffffffffffffffffffffffff021916908373ffffffffffffffffffffffffffffffffffffffff1602179055507fdaec4582d5d9595688c8c98545fdd1c696d41c6aeaeb636737e84ed2f5c00eda600960009054906101000a900473ffffffffffffffffffffffffffffffffffffffff16836040516114eb92919061316e565b60405180910390a15050565b60007f80ac58cd000000000000000000000000000000000000000000000000000000007bffffffffffffffffffffffffffffffffffffffffffffffffffffffff1916827bffffffffffffffffffffffffffffffffffffffffffffffffffffffff191614806115c257507f5b5e139f000000000000000000000000000000000000000000000000000000007bffffffffffffffffffffffffffffffffffffffffffffffffffffffff1916827bffffffffffffffffffffffffffffffffffffffffffffffffffffffff1916145b806115d257506115d182611e17565b5b9050919050565b6000806115e583611e81565b9050600073ffffffffffffffffffffffffffffffffffffffff168173ffffffffffffffffffffffffffffffffffffffff160361165857826040517f7e27328900000000000000000000000000000000000000000000000000000000815260040161164f91906126e4565b60405180910390fd5b80915050919050565b60006004600083815260200190815260200160002060009054906101000a900473ffffffffffffffffffffffffffffffffffffffff169050919050565b600033905090565b6116b38383836001611ebe565b505050565b6000806116c484611e81565b9050600073ffffffffffffffffffffffffffffffffffffffff168373ffffffffffffffffffffffffffffffffffffffff161461170657611705818486612083565b5b600073ffffffffffffffffffffffffffffffffffffffff168173ffffffffffffffffffffffffffffffffffffffff161461179757611748600085600080611ebe565b6001600360008373ffffffffffffffffffffffffffffffffffffffff1673ffffffffffffffffffffffffffffffffffffffff168152602001908152602001600020600082825403925050819055505b600073ffffffffffffffffffffffffffffffffffffffff168573ffffffffffffffffffffffffffffffffffffffff161461181a576001600360008773ffffffffffffffffffffffffffffffffffffffff1673ffffffffffffffffffffffffffffffffffffffff168152602001908152602001600020600082825401925050819055505b846002600086815260200190815260200160002060006101000a81548173ffffffffffffffffffffffffffffffffffffffff021916908373ffffffffffffffffffffffffffffffffffffffff160217905550838573ffffffffffffffffffffffffffffffffffffffff168273ffffffffffffffffffffffffffffffffffffffff167fddf252ad1be2c89b69c2b068fc378daa952ba7f163c4a11628f55a4df523b3ef60405160405180910390a4809150509392505050565b60026007540361190e576040517f3ee5aeb500000000000000000000000000000000000000000000000000000000815260040160405180910390fd5b6002600781905550565b6001600781905550565b600073ffffffffffffffffffffffffffffffffffffffff168273ffffffffffffffffffffffffffffffffffffffff160361199357816040517f5b08ba1800000000000000000000000000000000000000000000000000000000815260040161198a919061264e565b60405180910390fd5b80600560008573ffffffffffffffffffffffffffffffffffffffff1673ffffffffffffffffffffffffffffffffffffffff16815260200190815260200160002060008473ffffffffffffffffffffffffffffffffffffffff1673ffffffffffffffffffffffffffffffffffffffff16815260200190815260200160002060006101000a81548160ff0219169083151502179055508173ffffffffffffffffffffffffffffffffffffffff168373ffffffffffffffffffffffffffffffffffffffff167f17307eab39ab6107e8899845ad3d59bd9653f200f220920489ca2b5937696c3183604051611a8491906124dd565b60405180910390a3505050565b60008373ffffffffffffffffffffffffffffffffffffffff163b1115611c3b578273ffffffffffffffffffffffffffffffffffffffff1663150b7a02868685856040518563ffffffff1660e01b8152600401611af094939291906131ec565b6020604051808303816000875af1925050508015611b2c57506040513d601f19601f82011682018060405250810190611b29919061324d565b60015b611bb0573d8060008114611b5c576040519150601f19603f3d011682016040523d82523d6000602084013e611b61565b606091505b506000815103611ba857836040517f64a0ae92000000000000000000000000000000000000000000000000000000008152600401611b9f919061264e565b60405180910390fd5b805181602001fd5b63150b7a0260e01b7bffffffffffffffffffffffffffffffffffffffffffffffffffffffff1916817bffffffffffffffffffffffffffffffffffffffffffffffffffffffff191614611c3957836040517f64a0ae92000000000000000000000000000000000000000000000000000000008152600401611c30919061264e565b60405180910390fd5b505b5050505050565b606060405180602001604052806000815250905090565b6060611c64826115d9565b506000611c6f611c42565b90506000815111611c8f5760405180602001604052806000815250611cba565b80611c9984612147565b604051602001611caa929190612fbe565b6040516020818303038152906040525b915050919050565b600073ffffffffffffffffffffffffffffffffffffffff168273ffffffffffffffffffffffffffffffffffffffff1603611d345760006040517f64a0ae92000000000000000000000000000000000000000000000000000000008152600401611d2b919061264e565b60405180910390fd5b6000611d42838360006116b8565b9050600073ffffffffffffffffffffffffffffffffffffffff168173ffffffffffffffffffffffffffffffffffffffff1614611db65760006040517f73c6ac6e000000000000000000000000000000000000000000000000000000008152600401611dad919061264e565b60405180910390fd5b505050565b80600660008481526020019081526020016000209081611ddb9190613426565b507ff8e1a15aba9398e019f0b49df1a4fde98ee17ae345cb5f6b5e2c27f5033e8ce782604051611e0b91906126e4565b60405180910390a15050565b60007f01ffc9a7000000000000000000000000000000000000000000000000000000007bffffffffffffffffffffffffffffffffffffffffffffffffffffffff1916827bffffffffffffffffffffffffffffffffffffffffffffffffffffffff1916149050919050565b60006002600083815260200190815260200160002060009054906101000a900473ffffffffffffffffffffffffffffffffffffffff169050919050565b8080611ef75750600073ffffffffffffffffffffffffffffffffffffffff168273ffffffffffffffffffffffffffffffffffffffff1614155b1561202b576000611f07846115d9565b9050600073ffffffffffffffffffffffffffffffffffffffff168373ffffffffffffffffffffffffffffffffffffffff1614158015611f7257508273ffffffffffffffffffffffffffffffffffffffff168173ffffffffffffffffffffffffffffffffffffffff1614155b8015611f855750611f838184611084565b155b15611fc757826040517fa9fbf51f000000000000000000000000000000000000000000000000000000008152600401611fbe919061264e565b60405180910390fd5b811561202957838573ffffffffffffffffffffffffffffffffffffffff168273ffffffffffffffffffffffffffffffffffffffff167f8c5be1e5ebec7d5bd14f71427d1e84f3dd0314c0f7b2291e5b200ac8c7c3b92560405160405180910390a45b505b836004600085815260200190815260200160002060006101000a81548173ffffffffffffffffffffffffffffffffffffffff021916908373ffffffffffffffffffffffffffffffffffffffff16021790555050505050565b61208e838383612215565b61214257600073ffffffffffffffffffffffffffffffffffffffff168373ffffffffffffffffffffffffffffffffffffffff160361210357806040517f7e2732890000000000000000000000000000000000000000000000000000000081526004016120fa91906126e4565b60405180910390fd5b81816040517f177e802f00000000000000000000000000000000000000000000000000000000815260040161213992919061316e565b60405180910390fd5b505050565b606060006001612156846122d6565b01905060008167ffffffffffffffff81111561217557612174612931565b5b6040519080825280601f01601f1916602001820160405280156121a75781602001600182028036833780820191505090505b509050600082602001820190505b60011561220a578080600190039150507f3031323334353637383961626364656600000000000000000000000000000000600a86061a8153600a85816121fe576121fd6134f8565b5b049450600085036121b5575b819350505050919050565b60008073ffffffffffffffffffffffffffffffffffffffff168373ffffffffffffffffffffffffffffffffffffffff16141580156122cd57508273ffffffffffffffffffffffffffffffffffffffff168473ffffffffffffffffffffffffffffffffffffffff16148061228e575061228d8484611084565b5b806122cc57508273ffffffffffffffffffffffffffffffffffffffff166122b483611661565b73ffffffffffffffffffffffffffffffffffffffff16145b5b90509392505050565b600080600090507a184f03e93ff9f4daa797ed6e38ed64bf6a1f0100000000000000008310612334577a184f03e93ff9f4daa797ed6e38ed64bf6a1f010000000000000000838161232a576123296134f8565b5b0492506040810190505b6d04ee2d6d415b85acef81000000008310612371576d04ee2d6d415b85acef81000000008381612367576123666134f8565b5b0492506020810190505b662386f26fc1000083106123a057662386f26fc100008381612396576123956134f8565b5b0492506010810190505b6305f5e10083106123c9576305f5e10083816123bf576123be6134f8565b5b0492506008810190505b61271083106123ee5761271083816123e4576123e36134f8565b5b0492506004810190505b606483106124115760648381612407576124066134f8565b5b0492506002810190505b600a8310612420576001810190505b80915050919050565b6000604051905090565b600080fd5b600080fd5b60007fffffffff0000000000000000000000000000000000000000000000000000000082169050919050565b6124728161243d565b811461247d57600080fd5b50565b60008135905061248f81612469565b92915050565b6000602082840312156124ab576124aa612433565b5b60006124b984828501612480565b91505092915050565b60008115159050919050565b6124d7816124c2565b82525050565b60006020820190506124f260008301846124ce565b92915050565b600081519050919050565b600082825260208201905092915050565b60005b83811015612532578082015181840152602081019050612517565b60008484015250505050565b6000601f19601f8301169050919050565b600061255a826124f8565b6125648185612503565b9350612574818560208601612514565b61257d8161253e565b840191505092915050565b600060208201905081810360008301526125a2818461254f565b905092915050565b6000819050919050565b6125bd816125aa565b81146125c857600080fd5b50565b6000813590506125da816125b4565b92915050565b6000602082840312156125f6576125f5612433565b5b6000612604848285016125cb565b91505092915050565b600073ffffffffffffffffffffffffffffffffffffffff82169050919050565b60006126388261260d565b9050919050565b6126488161262d565b82525050565b6000602082019050612663600083018461263f565b92915050565b6126728161262d565b811461267d57600080fd5b50565b60008135905061268f81612669565b92915050565b600080604083850312156126ac576126ab612433565b5b60006126ba85828601612680565b92505060206126cb858286016125cb565b9150509250929050565b6126de816125aa565b82525050565b60006020820190506126f960008301846126d5565b92915050565b60008060006060848603121561271857612717612433565b5b600061272686828701612680565b935050602061273786828701612680565b9250506040612748868287016125cb565b9150509250925092565b60006020828403121561276857612767612433565b5b600061277684828501612680565b91505092915050565b6000806040838503121561279657612795612433565b5b60006127a4858286016125cb565b92505060206127b5858286016125cb565b9150509250929050565b600081519050919050565b600082825260208201905092915050565b6000819050602082019050919050565b6127f48161262d565b82525050565b600061280683836127eb565b60208301905092915050565b6000602082019050919050565b600061282a826127bf565b61283481856127ca565b935061283f836127db565b8060005b8381101561287057815161285788826127fa565b975061286283612812565b925050600181019050612843565b5085935050505092915050565b60006060820190508181036000830152612897818661281f565b90506128a660208301856126d5565b6128b360408301846126d5565b949350505050565b6128c4816124c2565b81146128cf57600080fd5b50565b6000813590506128e1816128bb565b92915050565b600080604083850312156128fe576128fd612433565b5b600061290c85828601612680565b925050602061291d858286016128d2565b9150509250929050565b600080fd5b600080fd5b7f4e487b7100000000000000000000000000000000000000000000000000000000600052604160045260246000fd5b6129698261253e565b810181811067ffffffffffffffff8211171561298857612987612931565b5b80604052505050565b600061299b612429565b90506129a78282612960565b919050565b600067ffffffffffffffff8211156129c7576129c6612931565b5b6129d08261253e565b9050602081019050919050565b82818337600083830152505050565b60006129ff6129fa846129ac565b612991565b905082815260208101848484011115612a1b57612a1a61292c565b5b612a268482856129dd565b509392505050565b600082601f830112612a4357612a42612927565b5b8135612a538482602086016129ec565b91505092915050565b60008060008060808587031215612a7657612a75612433565b5b6000612a8487828801612680565b9450506020612a9587828801612680565b9350506040612aa6878288016125cb565b925050606085013567ffffffffffffffff811115612ac757612ac6612438565b5b612ad387828801612a2e565b91505092959194509250565b60008060408385031215612af657612af5612433565b5b6000612b0485828601612680565b9250506020612b1585828601612680565b9150509250929050565b600067ffffffffffffffff821115612b3a57612b39612931565b5b612b438261253e565b9050602081019050919050565b6000612b63612b5e84612b1f565b612991565b905082815260208101848484011115612b7f57612b7e61292c565b5b612b8a8482856129dd565b509392505050565b600082601f830112612ba757612ba6612927565b5b8135612bb7848260208601612b50565b91505092915050565b600060208284031215612bd657612bd5612433565b5b600082013567ffffffffffffffff811115612bf457612bf3612438565b5b612c0084828501612b92565b91505092915050565b7f41756374696f6e20656e64656400000000000000000000000000000000000000600082015250565b6000612c3f600d83612503565b9150612c4a82612c09565b602082019050919050565b60006020820190508181036000830152612c6e81612c32565b9050919050565b7f4e6f204554482073656e74000000000000000000000000000000000000000000600082015250565b6000612cab600b83612503565b9150612cb682612c75565b602082019050919050565b60006020820190508181036000830152612cda81612c9e565b9050919050565b7f4e487b7100000000000000000000000000000000000000000000000000000000600052601160045260246000fd5b6000612d1b826125aa565b9150612d26836125aa565b9250828201905080821115612d3e57612d3d612ce1565b5b92915050565b7f4e487b7100000000000000000000000000000000000000000000000000000000600052602260045260246000fd5b60006002820490506001821680612d8b57607f821691505b602082108103612d9e57612d9d612d44565b5b50919050565b6000606082019050612db9600083018661263f565b612dc660208301856126d5565b612dd3604083018461263f565b949350505050565b7f41756374696f6e206e6f742079657420656e6465640000000000000000000000600082015250565b6000612e11601583612503565b9150612e1c82612ddb565b602082019050919050565b60006020820190508181036000830152612e4081612e04565b9050919050565b7f57696e6e65722063616e6e6f7420776974686472617700000000000000000000600082015250565b6000612e7d601683612503565b9150612e8882612e47565b602082019050919050565b60006020820190508181036000830152612eac81612e70565b9050919050565b7f4e6f7468696e6720746f20776974686472617700000000000000000000000000600082015250565b6000612ee9601383612503565b9150612ef482612eb3565b602082019050919050565b60006020820190508181036000830152612f1881612edc565b9050919050565b6000612f2a826125aa565b9150612f35836125aa565b9250828203905081811115612f4d57612f4c612ce1565b5b92915050565b7f4e487b7100000000000000000000000000000000000000000000000000000000600052603260045260246000fd5b600081905092915050565b6000612f98826124f8565b612fa28185612f82565b9350612fb2818560208601612514565b80840191505092915050565b6000612fca8285612f8d565b9150612fd68284612f8d565b91508190509392505050565b7f4f6e6c792077696e6e65722063616e206d696e74000000000000000000000000600082015250565b6000613018601483612503565b915061302382612fe2565b602082019050919050565b600060208201905081810360008301526130478161300b565b9050919050565b7f416c7265616479206d696e746564000000000000000000000000000000000000600082015250565b6000613084600e83612503565b915061308f8261304e565b602082019050919050565b600060208201905081810360008301526130b381613077565b9050919050565b60006130c5826125aa565b91507fffffffffffffffffffffffffffffffffffffffffffffffffffffffffffffffff82036130f7576130f6612ce1565b5b600182019050919050565b7f416c726561647920656e64656400000000000000000000000000000000000000600082015250565b6000613138600d83612503565b915061314382613102565b602082019050919050565b600060208201905081810360008301526131678161312b565b9050919050565b6000604082019050613183600083018561263f565b61319060208301846126d5565b9392505050565b600081519050919050565b600082825260208201905092915050565b60006131be82613197565b6131c881856131a2565b93506131d8818560208601612514565b6131e18161253e565b840191505092915050565b6000608082019050613201600083018761263f565b61320e602083018661263f565b61321b60408301856126d5565b818103606083015261322d81846131b3565b905095945050505050565b60008151905061324781612469565b92915050565b60006020828403121561326357613262612433565b5b600061327184828501613238565b91505092915050565b60008190508160005260206000209050919050565b60006020601f8301049050919050565b600082821b905092915050565b6000600883026132dc7fffffffffffffffffffffffffffffffffffffffffffffffffffffffffffffffff8261329f565b6132e6868361329f565b95508019841693508086168417925050509392505050565b6000819050919050565b600061332361331e613319846125aa565b6132fe565b6125aa565b9050919050565b6000819050919050565b61333d83613308565b6133516133498261332a565b8484546132ac565b825550505050565b600090565b613366613359565b613371818484613334565b505050565b5b818110156133955761338a60008261335e565b600181019050613377565b5050565b601f8211156133da576133ab8161327a565b6133b48461328f565b810160208510156133c3578190505b6133d76133cf8561328f565b830182613376565b50505b505050565b600082821c905092915050565b60006133fd600019846008026133df565b1980831691505092915050565b600061341683836133ec565b9150826002028217905092915050565b61342f826124f8565b67ffffffffffffffff81111561344857613447612931565b5b6134528254612d73565b61345d828285613399565b600060209050601f831160018114613490576000841561347e578287015190505b613488858261340a565b8655506134f0565b601f19841661349e8661327a565b60005b828110156134c6578489015182556001820191506020850194506020810190506134a1565b868310156134e357848901516134df601f8916826133ec565b8355505b6001600288020188555050505b505050505050565b7f4e487b7100000000000000000000000000000000000000000000000000000000600052601260045260246000fdfea264697066735822122084afc798c6c4b311016e438d561b845b380361282ae34d7d99d45e123127df0664736f6c63430008180033",
  "linkReferences": {},
  "deployedLinkReferences": {}
}