{
  "_format": "hh-sol-artifact-1",
  "contractName": "PaintingAuction",
  "sourceName": "contracts/PaintingAuction.sol",
  "abi": [
    {
      "inputs": [
        {
          "internalType": "string",
          "name": "name",
          "type": "string"
        },
        {
          "internalType": "string",
          "name": "symbol",
          "type": "string"
        },
        {
          "internalType": "uint256",
          "name": "_durationInSeconds",
          "type": "uint256"
        }
      ],
      "stateMutability": "nonpayable",
      "type": "constructor"
    },
    {
      "inputs": [
        {
          "internalType": "address",
          "name": "sender",
          "type": "address"
        },
        {
          "internalType": "uint256",
          "name": "tokenId",
          "type": "uint256"
        },
        {
          "internalType": "address",
          "name": "owner",
          "type": "address"
        }
      ],
      "name": "ERC721IncorrectOwner",
      "type": "error"
    },
    {
      "inputs": [
        {
          "internalType": "address",
          "name": "operator",
          "type": "address"
        },
        {
          "internalType": "uint256",
          "name": "tokenId",
          "type": "uint256"
        }
      ],
      "name": "ERC721InsufficientApproval",
      "type": "error"
    },
    {
      "inputs": [
        {
          "internalType": "address",
          "name": "approver",
          "type": "address"
        }
      ],
      "name": "ERC721InvalidApprover",
      "type": "error"
    },
    {
      "inputs": [
        {
          "internalType": "address",
          "name": "operator",
          "type": "address"
        }
      ],
      "name": "ERC721InvalidOperator",
      "type": "error"
    },
    {
      "inputs": [
        {
          "internalType": "address",
          "name": "owner",
          "type": "address"
        }
      ],
      "name": "ERC721InvalidOwner",
      "type": "error"
    },
    {
      "inputs": [
        {
          "internalType": "address",
          "name": "receiver",
          "type": "address"
        }
      ],
      "name": "ERC721InvalidReceiver",
      "type": "error"
    },
    {
      "inputs": [
        {
          "internalType": "address",
          "name": "sender",
          "type": "address"
        }
      ],
      "name": "ERC721InvalidSender",
      "type": "error"
    },
    {
      "inputs": [
        {
          "internalType": "uint256",
          "name": "tokenId",
          "type": "uint256"
        }
      ],
      "name": "ERC721NonexistentToken",
      "type": "error"
    },
    {
      "inputs": [],
      "name": "ReentrancyGuardReentrantCall",
      "type": "error"
    },
    {
      "anonymous": false,
      "inputs": [
        {
          "indexed": true,
          "internalType": "address",
          "name": "owner",
          "type": "address"
        },
        {
          "indexed": true,
          "internalType": "address",
          "name": "approved",
          "type": "address"
        },
        {
          "indexed": true,
          "internalType": "uint256",
          "name": "tokenId",
          "type": "uint256"
        }
      ],
      "name": "Approval",
      "type": "event"
    },
    {
      "anonymous": false,
      "inputs": [
        {
          "indexed": true,
          "internalType": "address",
          "name": "owner",
          "type": "address"
        },
        {
          "indexed": true,
          "internalType": "address",
          "name": "operator",
          "type": "address"
        },
        {
          "indexed": false,
          "internalType": "bool",
          "name": "approved",
          "type": "bool"
        }
      ],
      "name": "ApprovalForAll",
      "type": "event"
    },
    {
      "anonymous": false,
      "inputs": [
        {
          "indexed": false,
          "internalType": "address",
          "name": "winner",
          "type": "address"
        },
        {
          "indexed": false,
          "internalType": "uint256",
          "name": "amount",
          "type": "uint256"
        }
      ],
      "name": "AuctionEnded",
      "type": "event"
    },
    {
      "anonymous": false,
      "inputs": [
        {
          "indexed": false,
          "internalType": "uint256",
          "name": "_fromTokenId",
          "type": "uint256"
        },
        {
          "indexed": false,
          "internalType": "uint256",
          "name": "_toTokenId",
          "type": "uint256"
        }
      ],
      "name": "BatchMetadataUpdate",
      "type": "event"
    },
    {
      "anonymous": false,
      "inputs": [
        {
          "indexed": true,
          "internalType": "address",
          "name": "bidder",
          "type": "address"
        },
        {
          "indexed": false,
          "internalType": "uint256",
          "name": "amount",
          "type": "uint256"
        }
      ],
      "name": "BidPlaced",
      "type": "event"
    },
    {
      "anonymous": false,
      "inputs": [
        {
          "indexed": true,
          "internalType": "address",
          "name": "bidder",
          "type": "address"
        },
        {
          "indexed": false,
          "internalType": "uint256",
          "name": "amount",
          "type": "uint256"
        }
      ],
      "name": "FundsWithdrawn",
      "type": "event"
    },
    {
      "anonymous": false,
      "inputs": [
        {
          "indexed": false,
          "internalType": "uint256",
          "name": "_tokenId",
          "type": "uint256"
        }
      ],
      "name": "MetadataUpdate",
      "type": "event"
    },
    {
      "anonymous": false,
      "inputs": [
        {
          "indexed": true,
          "internalType": "address",
          "name": "to",
          "type": "address"
        },
        {
          "indexed": false,
          "internalType": "uint256",
          "name": "tokenId",
          "type": "uint256"
        }
      ],
      "name": "NFTMinted",
      "type": "event"
    },
    {
      "anonymous": false,
      "inputs": [
        {
          "indexed": true,
          "internalType": "address",
          "name": "from",
          "type": "address"
        },
        {
          "indexed": true,
          "internalType": "address",
          "name": "to",
          "type": "address"
        },
        {
          "indexed": true,
          "internalType": "uint256",
          "name": "tokenId",
          "type": "uint256"
        }
      ],
      "name": "Transfer",
      "type": "event"
    },
    {
      "inputs": [
        {
          "internalType": "address",
          "name": "to",
          "type": "address"
        },
        {
          "internalType": "uint256",
          "name": "tokenId",
          "type": "uint256"
        }
      ],
      "name": "approve",
      "outputs": [],
      "stateMutability": "nonpayable",
      "type": "function"
    },
    {
      "inputs": [],
      "name": "auctionEnded",
      "outputs": [
        {
          "internalType": "bool",
          "name": "",
          "type": "bool"
        }
      ],
      "stateMutability": "view",
      "type": "function"
    },
    {
      "inputs": [
        {
          "internalType": "address",
          "name": "owner",
          "type": "address"
        }
      ],
      "name": "balanceOf",
      "outputs": [
        {
          "internalType": "uint256",
          "name": "",
          "type": "uint256"
        }
      ],
      "stateMutability": "view",
      "type": "function"
    },
    {
      "inputs": [],
      "name": "bid",
      "outputs": [],
      "stateMutability": "payable",
      "type": "function"
    },
    {
      "inputs": [
        {
          "internalType": "address",
          "name": "",
          "type": "address"
        }
      ],
      "name": "bids",
      "outputs": [
        {
          "internalType": "uint256",
          "name": "",
          "type": "uint256"
        }
      ],
      "stateMutability": "view",
      "type": "function"
    },
    {
      "inputs": [],
      "name": "endAuction",
      "outputs": [],
      "stateMutability": "nonpayable",
      "type": "function"
    },
    {
      "inputs": [],
      "name": "endTime",
      "outputs": [
        {
          "internalType": "uint256",
          "name": "",
          "type": "uint256"
        }
      ],
      "stateMutability": "view",
      "type": "function"
    },
    {
      "inputs": [
        {
          "internalType": "uint256",
          "name": "tokenId",
          "type": "uint256"
        }
      ],
      "name": "getApproved",
      "outputs": [
        {
          "internalType": "address",
          "name": "",
          "type": "address"
        }
      ],
      "stateMutability": "view",
      "type": "function"
    },
    {
      "inputs": [
        {
          "internalType": "uint256",
          "name": "offset",
          "type": "uint256"
        },
        {
          "internalType": "uint256",
          "name": "limit",
          "type": "uint256"
        }
      ],
      "name": "getBidders",
      "outputs": [
        {
          "internalType": "address[]",
          "name": "",
          "type": "address[]"
        },
        {
          "internalType": "uint256",
          "name": "nextOffset",
          "type": "uint256"
        },
        {
          "internalType": "uint256",
          "name": "totalBidders",
          "type": "uint256"
        }
      ],
      "stateMutability": "view",
      "type": "function"
    },
    {
      "inputs": [
        {
          "internalType": "address",
          "name": "owner",
          "type": "address"
        },
        {
          "internalType": "address",
          "name": "operator",
          "type": "address"
        }
      ],
      "name": "isApprovedForAll",
      "outputs": [
        {
          "internalType": "bool",
          "name": "",
          "type": "bool"
        }
      ],
      "stateMutability": "view",
      "type": "function"
    },
    {
      "inputs": [
        {
          "internalType": "string",
          "name": "tokenURI",
          "type": "string"
        },
        {
          "internalType": "address",
          "name": "toAddress",
          "type": "address"
        }
      ],
      "name": "mintNFT",
      "outputs": [],
      "stateMutability": "nonpayable",
      "type": "function"
    },
    {
      "inputs": [],
      "name": "name",
      "outputs": [
        {
          "internalType": "string",
          "name": "",
          "type": "string"
        }
      ],
      "stateMutability": "view",
      "type": "function"
    },
    {
      "inputs": [],
      "name": "nftMinted",
      "outputs": [
        {
          "internalType": "bool",
          "name": "",
          "type": "bool"
        }
      ],
      "stateMutability": "view",
      "type": "function"
    },
    {
      "inputs": [],
      "name": "owner",
      "outputs": [
        {
          "internalType": "address",
          "name": "",
          "type": "address"
        }
      ],
      "stateMutability": "view",
      "type": "function"
    },
    {
      "inputs": [
        {
          "internalType": "uint256",
          "name": "tokenId",
          "type": "uint256"
        }
      ],
      "name": "ownerOf",
      "outputs": [
        {
          "internalType": "address",
          "name": "",
          "type": "address"
        }
      ],
      "stateMutability": "view",
      "type": "function"
    },
    {
      "inputs": [
        {
          "internalType": "uint256",
          "name": "offset",
          "type": "uint256"
        },
        {
          "internalType": "uint256",
          "name": "limit",
          "type": "uint256"
        }
      ],
      "name": "refundBatch",
      "outputs": [],
      "stateMutability": "nonpayable",
      "type": "function"
    },
    {
      "inputs": [
        {
          "internalType": "address",
          "name": "",
          "type": "address"
        }
      ],
      "name": "refunded",
      "outputs": [
        {
          "internalType": "bool",
          "name": "",
          "type": "bool"
        }
      ],
      "stateMutability": "view",
      "type": "function"
    },
    {
      "inputs": [
        {
          "internalType": "address",
          "name": "from",
          "type": "address"
        },
        {
          "internalType": "address",
          "name": "to",
          "type": "address"
        },
        {
          "internalType": "uint256",
          "name": "tokenId",
          "type": "uint256"
        }
      ],
      "name": "safeTransferFrom",
      "outputs": [],
      "stateMutability": "nonpayable",
      "type": "function"
    },
    {
      "inputs": [
        {
          "internalType": "address",
          "name": "from",
          "type": "address"
        },
        {
          "internalType": "address",
          "name": "to",
          "type": "address"
        },
        {
          "internalType": "uint256",
          "name": "tokenId",
          "type": "uint256"
        },
        {
          "internalType": "bytes",
          "name": "data",
          "type": "bytes"
        }
      ],
      "name": "safeTransferFrom",
      "outputs": [],
      "stateMutability": "nonpayable",
      "type": "function"
    },
    {
      "inputs": [
        {
          "internalType": "address",
          "name": "operator",
          "type": "address"
        },
        {
          "internalType": "bool",
          "name": "approved",
          "type": "bool"
        }
      ],
      "name": "setApprovalForAll",
      "outputs": [],
      "stateMutability": "nonpayable",
      "type": "function"
    },
    {
      "inputs": [
        {
          "internalType": "bytes4",
          "name": "interfaceId",
          "type": "bytes4"
        }
      ],
      "name": "supportsInterface",
      "outputs": [
        {
          "internalType": "bool",
          "name": "",
          "type": "bool"
        }
      ],
      "stateMutability": "view",
      "type": "function"
    },
    {
      "inputs": [],
      "name": "symbol",
      "outputs": [
        {
          "internalType": "string",
          "name": "",
          "type": "string"
        }
      ],
      "stateMutability": "view",
      "type": "function"
    },
    {
      "inputs": [],
      "name": "tokenId",
      "outputs": [
        {
          "internalType": "uint256",
          "name": "",
          "type": "uint256"
        }
      ],
      "stateMutability": "view",
      "type": "function"
    },
    {
      "inputs": [
        {
          "internalType": "uint256",
          "name": "tokenId",
          "type": "uint256"
        }
      ],
      "name": "tokenURI",
      "outputs": [
        {
          "internalType": "string",
          "name": "",
          "type": "string"
        }
      ],
      "stateMutability": "view",
      "type": "function"
    },
    {
      "inputs": [
        {
          "internalType": "address",
          "name": "from",
          "type": "address"
        },
        {
          "internalType": "address",
          "name": "to",
          "type": "address"
        },
        {
          "internalType": "uint256",
          "name": "tokenId",
          "type": "uint256"
        }
      ],
      "name": "transferFrom",
      "outputs": [],
      "stateMutability": "nonpayable",
      "type": "function"
    },
    {
      "inputs": [],
      "name": "winner",
      "outputs": [
        {
          "internalType": "address",
          "name": "",
          "type": "address"
        }
      ],
      "stateMutability": "view",
      "type": "function"
    },
    {
      "stateMutability": "payable",
      "type": "receive"
    }
  ],
  "bytecode": "0x60806040526000600a60156101000a81548160ff0219169083151502179055503480156200002c57600080fd5b5060405162003f8838038062003f888339818101604052810190620000529190620002ae565b8282816000908162000065919062000589565b50806001908162000077919062000589565b505050600160078190555080426200009091906200069f565b60098190555033600860006101000a81548173ffffffffffffffffffffffffffffffffffffffff021916908373ffffffffffffffffffffffffffffffffffffffff160217905550505050620006da565b6000604051905090565b600080fd5b600080fd5b600080fd5b600080fd5b6000601f19601f8301169050919050565b7f4e487b7100000000000000000000000000000000000000000000000000000000600052604160045260246000fd5b6200014982620000fe565b810181811067ffffffffffffffff821117156200016b576200016a6200010f565b5b80604052505050565b600062000180620000e0565b90506200018e82826200013e565b919050565b600067ffffffffffffffff821115620001b157620001b06200010f565b5b620001bc82620000fe565b9050602081019050919050565b60005b83811015620001e9578082015181840152602081019050620001cc565b60008484015250505050565b60006200020c620002068462000193565b62000174565b9050828152602081018484840111156200022b576200022a620000f9565b5b62000238848285620001c9565b509392505050565b600082601f830112620002585762000257620000f4565b5b81516200026a848260208601620001f5565b91505092915050565b6000819050919050565b620002888162000273565b81146200029457600080fd5b50565b600081519050620002a8816200027d565b92915050565b600080600060608486031215620002ca57620002c9620000ea565b5b600084015167ffffffffffffffff811115620002eb57620002ea620000ef565b5b620002f98682870162000240565b935050602084015167ffffffffffffffff8111156200031d576200031c620000ef565b5b6200032b8682870162000240565b92505060406200033e8682870162000297565b9150509250925092565b600081519050919050565b7f4e487b7100000000000000000000000000000000000000000000000000000000600052602260045260246000fd5b600060028204905060018216806200039b57607f821691505b602082108103620003b157620003b062000353565b5b50919050565b60008190508160005260206000209050919050565b60006020601f8301049050919050565b600082821b905092915050565b6000600883026200041b7fffffffffffffffffffffffffffffffffffffffffffffffffffffffffffffffff82620003dc565b620004278683620003dc565b95508019841693508086168417925050509392505050565b6000819050919050565b60006200046a620004646200045e8462000273565b6200043f565b62000273565b9050919050565b6000819050919050565b620004868362000449565b6200049e620004958262000471565b848454620003e9565b825550505050565b600090565b620004b5620004a6565b620004c28184846200047b565b505050565b5b81811015620004ea57620004de600082620004ab565b600181019050620004c8565b5050565b601f82111562000539576200050381620003b7565b6200050e84620003cc565b810160208510156200051e578190505b620005366200052d85620003cc565b830182620004c7565b50505b505050565b600082821c905092915050565b60006200055e600019846008026200053e565b1980831691505092915050565b60006200057983836200054b565b9150826002028217905092915050565b620005948262000348565b67ffffffffffffffff811115620005b057620005af6200010f565b5b620005bc825462000382565b620005c9828285620004ee565b600060209050601f831160018114620006015760008415620005ec578287015190505b620005f885826200056b565b86555062000668565b601f1984166200061186620003b7565b60005b828110156200063b5784890151825560018201915060208501945060208101905062000614565b868310156200065b578489015162000657601f8916826200054b565b8355505b6001600288020188555050505b505050505050565b7f4e487b7100000000000000000000000000000000000000000000000000000000600052601160045260246000fd5b6000620006ac8262000273565b9150620006b98362000273565b9250828201905080821115620006d457620006d362000670565b5b92915050565b61389e80620006ea6000396000f3fe6080604052600436106101855760003560e01c806370a08231116100d1578063a22cb4651161008a578063c87b56dd11610064578063c87b56dd1461059c578063dfbf53ae146105d9578063e985e9c514610604578063fe67a54b1461064157610194565b8063a22cb4651461050d578063b88d4fde14610536578063c033a4901461055f57610194565b806370a08231146103e75780637faa7e9814610424578063864333741461044d5780638a828b08146104785780638da5cb5b146104b757806395d89b41146104e257610194565b80631998aeef1161013e5780633651f5e4116101185780633651f5e41461031957806342842e0e1461034457806362ea82db1461036d5780636352211e146103aa57610194565b80631998aeef146102bb57806323b872dd146102c55780633197cbb6146102ee57610194565b806301ffc9a71461019957806304f32279146101d657806306fdde03146101ff578063081812fc1461022a578063095ea7b31461026757806317d70f7c1461029057610194565b3661019457610192610658565b005b600080fd5b3480156101a557600080fd5b506101c060048036038101906101bb91906127c3565b610830565b6040516101cd919061280b565b60405180910390f35b3480156101e257600080fd5b506101fd60048036038101906101f891906129ca565b610891565b005b34801561020b57600080fd5b50610214610af5565b6040516102219190612aa5565b60405180910390f35b34801561023657600080fd5b50610251600480360381019061024c9190612afd565b610b87565b60405161025e9190612b39565b60405180910390f35b34801561027357600080fd5b5061028e60048036038101906102899190612b54565b610ba3565b005b34801561029c57600080fd5b506102a5610bb9565b6040516102b29190612ba3565b60405180910390f35b6102c3610658565b005b3480156102d157600080fd5b506102ec60048036038101906102e79190612bbe565b610bbf565b005b3480156102fa57600080fd5b50610303610cc1565b6040516103109190612ba3565b60405180910390f35b34801561032557600080fd5b5061032e610cc7565b60405161033b919061280b565b60405180910390f35b34801561035057600080fd5b5061036b60048036038101906103669190612bbe565b610cda565b005b34801561037957600080fd5b50610394600480360381019061038f9190612c11565b610cfa565b6040516103a19190612ba3565b60405180910390f35b3480156103b657600080fd5b506103d160048036038101906103cc9190612afd565b610d12565b6040516103de9190612b39565b60405180910390f35b3480156103f357600080fd5b5061040e60048036038101906104099190612c11565b610d24565b60405161041b9190612ba3565b60405180910390f35b34801561043057600080fd5b5061044b60048036038101906104469190612c3e565b610dde565b005b34801561045957600080fd5b506104626111ce565b60405161046f919061280b565b60405180910390f35b34801561048457600080fd5b5061049f600480360381019061049a9190612c3e565b6111e1565b6040516104ae93929190612d3c565b60405180910390f35b3480156104c357600080fd5b506104cc611339565b6040516104d99190612b39565b60405180910390f35b3480156104ee57600080fd5b506104f761135f565b6040516105049190612aa5565b60405180910390f35b34801561051957600080fd5b50610534600480360381019061052f9190612da6565b6113f1565b005b34801561054257600080fd5b5061055d60048036038101906105589190612e87565b611407565b005b34801561056b57600080fd5b5061058660048036038101906105819190612c11565b61142c565b604051610593919061280b565b60405180910390f35b3480156105a857600080fd5b506105c360048036038101906105be9190612afd565b61144c565b6040516105d09190612aa5565b60405180910390f35b3480156105e557600080fd5b506105ee61155f565b6040516105fb9190612b39565b60405180910390f35b34801561061057600080fd5b5061062b60048036038101906106269190612f0a565b611585565b604051610638919061280b565b60405180910390f35b34801561064d57600080fd5b50610656611619565b005b600954421061069c576040517f08c379a000000000000000000000000000000000000000000000000000000000815260040161069390612f96565b60405180910390fd5b600034116106df576040517f08c379a00000000000000000000000000000000000000000000000000000000081526004016106d690613002565b60405180910390fd5b6000600c60003373ffffffffffffffffffffffffffffffffffffffff1673ffffffffffffffffffffffffffffffffffffffff168152602001908152602001600020540361078a57600d339080600181540180825580915050600190039060005260206000200160009091909190916101000a81548173ffffffffffffffffffffffffffffffffffffffff021916908373ffffffffffffffffffffffffffffffffffffffff1602179055505b34600c60003373ffffffffffffffffffffffffffffffffffffffff1673ffffffffffffffffffffffffffffffffffffffff16815260200190815260200160002060008282546107d99190613051565b925050819055503373ffffffffffffffffffffffffffffffffffffffff167f3fabff0a9c3ecd6814702e247fa9733e5d0aa69e3a38590f92cb18f623a2254d346040516108269190612ba3565b60405180910390a2565b6000634906490660e01b7bffffffffffffffffffffffffffffffffffffffffffffffffffffffff1916827bffffffffffffffffffffffffffffffffffffffffffffffffffffffff1916148061088a575061088982611825565b5b9050919050565b6009544210156108d6576040517f08c379a00000000000000000000000000000000000000000000000000000000081526004016108cd906130d1565b60405180910390fd5b600860009054906101000a900473ffffffffffffffffffffffffffffffffffffffff1673ffffffffffffffffffffffffffffffffffffffff163373ffffffffffffffffffffffffffffffffffffffff1614610966576040517f08c379a000000000000000000000000000000000000000000000000000000000815260040161095d9061313d565b60405180910390fd5b61096e611907565b600a60009054906101000a900473ffffffffffffffffffffffffffffffffffffffff1673ffffffffffffffffffffffffffffffffffffffff168173ffffffffffffffffffffffffffffffffffffffff16146109fe576040517f08c379a00000000000000000000000000000000000000000000000000000000081526004016109f5906131a9565b60405180910390fd5b600a60159054906101000a900460ff1615610a4e576040517f08c379a0000000000000000000000000000000000000000000000000000000008152600401610a4590613215565b60405180910390fd5b600b6000815480929190610a6190613235565b9190505550610a7281600b5461194d565b610a7e600b5483611a46565b6001600a60156101000a81548160ff0219169083151502179055508073ffffffffffffffffffffffffffffffffffffffff167f4cc0a9c4a99ddc700de1af2c9f916a7cbfdb71f14801ccff94061ad1ef8a8040600b54604051610ae19190612ba3565b60405180910390a2610af1611aa2565b5050565b606060008054610b04906132ac565b80601f0160208091040260200160405190810160405280929190818152602001828054610b30906132ac565b8015610b7d5780601f10610b5257610100808354040283529160200191610b7d565b820191906000526020600020905b815481529060010190602001808311610b6057829003601f168201915b5050505050905090565b6000610b9282611aac565b50610b9c82611b34565b9050919050565b610bb58282610bb0611b71565b611b79565b5050565b600b5481565b600073ffffffffffffffffffffffffffffffffffffffff168273ffffffffffffffffffffffffffffffffffffffff1603610c315760006040517f64a0ae92000000000000000000000000000000000000000000000000000000008152600401610c289190612b39565b60405180910390fd5b6000610c458383610c40611b71565b611b8b565b90508373ffffffffffffffffffffffffffffffffffffffff168173ffffffffffffffffffffffffffffffffffffffff1614610cbb578382826040517f64283d7b000000000000000000000000000000000000000000000000000000008152600401610cb2939291906132dd565b60405180910390fd5b50505050565b60095481565b600a60159054906101000a900460ff1681565b610cf583838360405180602001604052806000815250611407565b505050565b600c6020528060005260406000206000915090505481565b6000610d1d82611aac565b9050919050565b60008073ffffffffffffffffffffffffffffffffffffffff168273ffffffffffffffffffffffffffffffffffffffff1603610d975760006040517f89c62b64000000000000000000000000000000000000000000000000000000008152600401610d8e9190612b39565b60405180910390fd5b600360008373ffffffffffffffffffffffffffffffffffffffff1673ffffffffffffffffffffffffffffffffffffffff168152602001908152602001600020549050919050565b600860009054906101000a900473ffffffffffffffffffffffffffffffffffffffff1673ffffffffffffffffffffffffffffffffffffffff163373ffffffffffffffffffffffffffffffffffffffff1614610e6e576040517f08c379a0000000000000000000000000000000000000000000000000000000008152600401610e659061313d565b60405180910390fd5b600954421015610eb3576040517f08c379a0000000000000000000000000000000000000000000000000000000008152600401610eaa906130d1565b60405180910390fd5b610ebb611907565b600a60149054906101000a900460ff16610f0a576040517f08c379a0000000000000000000000000000000000000000000000000000000008152600401610f0190613360565b60405180910390fd5b6000808390505b600d8054905081108015610f2457508282105b156111c0576000600d8281548110610f3f57610f3e613380565b5b9060005260206000200160009054906101000a900473ffffffffffffffffffffffffffffffffffffffff169050600a60009054906101000a900473ffffffffffffffffffffffffffffffffffffffff1673ffffffffffffffffffffffffffffffffffffffff168173ffffffffffffffffffffffffffffffffffffffff1614806110115750600e60008273ffffffffffffffffffffffffffffffffffffffff1673ffffffffffffffffffffffffffffffffffffffff16815260200190815260200160002060009054906101000a900460ff165b1561101c57506111ad565b6000600c60008373ffffffffffffffffffffffffffffffffffffffff1673ffffffffffffffffffffffffffffffffffffffff168152602001908152602001600020549050600081111561119c576001600e60008473ffffffffffffffffffffffffffffffffffffffff1673ffffffffffffffffffffffffffffffffffffffff16815260200190815260200160002060006101000a81548160ff0219169083151502179055506000600c60008473ffffffffffffffffffffffffffffffffffffffff1673ffffffffffffffffffffffffffffffffffffffff168152602001908152602001600020819055508173ffffffffffffffffffffffffffffffffffffffff166108fc829081150290604051600060405180830381858888f1935050505015801561114c573d6000803e3d6000fd5b508173ffffffffffffffffffffffffffffffffffffffff167feaff4b37086828766ad3268786972c0cd24259d4c87a80f9d3963a3c3d999b0d826040516111939190612ba3565b60405180910390a25b83806111a790613235565b94505050505b80806111b890613235565b915050610f11565b50506111ca611aa2565b5050565b600a60149054906101000a900460ff1681565b6060600080600d80549050905060008490506000810361120057600190505b858261120c91906133af565b81111561122257858261121f91906133af565b90505b60008167ffffffffffffffff81111561123e5761123d612841565b5b60405190808252806020026020018201604052801561126c5781602001602082028036833780820191505090505b50905060005b8281101561131e57600d81896112889190613051565b8154811061129957611298613380565b5b9060005260206000200160009054906101000a900473ffffffffffffffffffffffffffffffffffffffff168282815181106112d7576112d6613380565b5b602002602001019073ffffffffffffffffffffffffffffffffffffffff16908173ffffffffffffffffffffffffffffffffffffffff16815250508080600101915050611272565b5080828861132c9190613051565b9450945050509250925092565b600860009054906101000a900473ffffffffffffffffffffffffffffffffffffffff1681565b60606001805461136e906132ac565b80601f016020809104026020016040519081016040528092919081815260200182805461139a906132ac565b80156113e75780601f106113bc576101008083540402835291602001916113e7565b820191906000526020600020905b8154815290600101906020018083116113ca57829003601f168201915b5050505050905090565b6114036113fc611b71565b8383611da5565b5050565b611412848484610bbf565b61142661141d611b71565b85858585611f14565b50505050565b600e6020528060005260406000206000915054906101000a900460ff1681565b606061145782611aac565b506000600660008481526020019081526020016000208054611478906132ac565b80601f01602080910402602001604051908101604052809291908181526020018280546114a4906132ac565b80156114f15780601f106114c6576101008083540402835291602001916114f1565b820191906000526020600020905b8154815290600101906020018083116114d457829003601f168201915b5050505050905060006115026120c5565b9050600081510361151757819250505061155a565b60008251111561154c57808260405160200161153492919061341f565b6040516020818303038152906040529250505061155a565b611555846120dc565b925050505b919050565b600a60009054906101000a900473ffffffffffffffffffffffffffffffffffffffff1681565b6000600560008473ffffffffffffffffffffffffffffffffffffffff1673ffffffffffffffffffffffffffffffffffffffff16815260200190815260200160002060008373ffffffffffffffffffffffffffffffffffffffff1673ffffffffffffffffffffffffffffffffffffffff16815260200190815260200160002060009054906101000a900460ff16905092915050565b60095442101561165e576040517f08c379a0000000000000000000000000000000000000000000000000000000008152600401611655906130d1565b60405180910390fd5b600a60149054906101000a900460ff16156116ae576040517f08c379a00000000000000000000000000000000000000000000000000000000081526004016116a59061348f565b60405180910390fd5b60008080600090505b600d80549050811015611769576000600d82815481106116da576116d9613380565b5b9060005260206000200160009054906101000a900473ffffffffffffffffffffffffffffffffffffffff1690506000600c60008373ffffffffffffffffffffffffffffffffffffffff1673ffffffffffffffffffffffffffffffffffffffff1681526020019081526020016000205490508481111561175a578094508193505b505080806001019150506116b7565b506001600a60146101000a81548160ff02191690831515021790555080600a60006101000a81548173ffffffffffffffffffffffffffffffffffffffff021916908373ffffffffffffffffffffffffffffffffffffffff1602179055507fdaec4582d5d9595688c8c98545fdd1c696d41c6aeaeb636737e84ed2f5c00eda600a60009054906101000a900473ffffffffffffffffffffffffffffffffffffffff16836040516118199291906134af565b60405180910390a15050565b60007f80ac58cd000000000000000000000000000000000000000000000000000000007bffffffffffffffffffffffffffffffffffffffffffffffffffffffff1916827bffffffffffffffffffffffffffffffffffffffffffffffffffffffff191614806118f057507f5b5e139f000000000000000000000000000000000000000000000000000000007bffffffffffffffffffffffffffffffffffffffffffffffffffffffff1916827bffffffffffffffffffffffffffffffffffffffffffffffffffffffff1916145b8061190057506118ff82612145565b5b9050919050565b600260075403611943576040517f3ee5aeb500000000000000000000000000000000000000000000000000000000815260040160405180910390fd5b6002600781905550565b600073ffffffffffffffffffffffffffffffffffffffff168273ffffffffffffffffffffffffffffffffffffffff16036119bf5760006040517f64a0ae920000000000000000000000000000000000000000000000000000000081526004016119b69190612b39565b60405180910390fd5b60006119cd83836000611b8b565b9050600073ffffffffffffffffffffffffffffffffffffffff168173ffffffffffffffffffffffffffffffffffffffff1614611a415760006040517f73c6ac6e000000000000000000000000000000000000000000000000000000008152600401611a389190612b39565b60405180910390fd5b505050565b80600660008481526020019081526020016000209081611a669190613684565b507ff8e1a15aba9398e019f0b49df1a4fde98ee17ae345cb5f6b5e2c27f5033e8ce782604051611a969190612ba3565b60405180910390a15050565b6001600781905550565b600080611ab8836121af565b9050600073ffffffffffffffffffffffffffffffffffffffff168173ffffffffffffffffffffffffffffffffffffffff1603611b2b57826040517f7e273289000000000000000000000000000000000000000000000000000000008152600401611b229190612ba3565b60405180910390fd5b80915050919050565b60006004600083815260200190815260200160002060009054906101000a900473ffffffffffffffffffffffffffffffffffffffff169050919050565b600033905090565b611b8683838360016121ec565b505050565b600080611b97846121af565b9050600073ffffffffffffffffffffffffffffffffffffffff168373ffffffffffffffffffffffffffffffffffffffff1614611bd957611bd88184866123b1565b5b600073ffffffffffffffffffffffffffffffffffffffff168173ffffffffffffffffffffffffffffffffffffffff1614611c6a57611c1b6000856000806121ec565b6001600360008373ffffffffffffffffffffffffffffffffffffffff1673ffffffffffffffffffffffffffffffffffffffff168152602001908152602001600020600082825403925050819055505b600073ffffffffffffffffffffffffffffffffffffffff168573ffffffffffffffffffffffffffffffffffffffff1614611ced576001600360008773ffffffffffffffffffffffffffffffffffffffff1673ffffffffffffffffffffffffffffffffffffffff168152602001908152602001600020600082825401925050819055505b846002600086815260200190815260200160002060006101000a81548173ffffffffffffffffffffffffffffffffffffffff021916908373ffffffffffffffffffffffffffffffffffffffff160217905550838573ffffffffffffffffffffffffffffffffffffffff168273ffffffffffffffffffffffffffffffffffffffff167fddf252ad1be2c89b69c2b068fc378daa952ba7f163c4a11628f55a4df523b3ef60405160405180910390a4809150509392505050565b600073ffffffffffffffffffffffffffffffffffffffff168273ffffffffffffffffffffffffffffffffffffffff1603611e1657816040517f5b08ba18000000000000000000000000000000000000000000000000000000008152600401611e0d9190612b39565b60405180910390fd5b80600560008573ffffffffffffffffffffffffffffffffffffffff1673ffffffffffffffffffffffffffffffffffffffff16815260200190815260200160002060008473ffffffffffffffffffffffffffffffffffffffff1673ffffffffffffffffffffffffffffffffffffffff16815260200190815260200160002060006101000a81548160ff0219169083151502179055508173ffffffffffffffffffffffffffffffffffffffff168373ffffffffffffffffffffffffffffffffffffffff167f17307eab39ab6107e8899845ad3d59bd9653f200f220920489ca2b5937696c3183604051611f07919061280b565b60405180910390a3505050565b60008373ffffffffffffffffffffffffffffffffffffffff163b11156120be578273ffffffffffffffffffffffffffffffffffffffff1663150b7a02868685856040518563ffffffff1660e01b8152600401611f7394939291906137ab565b6020604051808303816000875af1925050508015611faf57506040513d601f19601f82011682018060405250810190611fac919061380c565b60015b612033573d8060008114611fdf576040519150601f19603f3d011682016040523d82523d6000602084013e611fe4565b606091505b50600081510361202b57836040517f64a0ae920000000000000000000000000000000000000000000000000000000081526004016120229190612b39565b60405180910390fd5b805181602001fd5b63150b7a0260e01b7bffffffffffffffffffffffffffffffffffffffffffffffffffffffff1916817bffffffffffffffffffffffffffffffffffffffffffffffffffffffff1916146120bc57836040517f64a0ae920000000000000000000000000000000000000000000000000000000081526004016120b39190612b39565b60405180910390fd5b505b5050505050565b606060405180602001604052806000815250905090565b60606120e782611aac565b5060006120f26120c5565b90506000815111612112576040518060200160405280600081525061213d565b8061211c84612475565b60405160200161212d92919061341f565b6040516020818303038152906040525b915050919050565b60007f01ffc9a7000000000000000000000000000000000000000000000000000000007bffffffffffffffffffffffffffffffffffffffffffffffffffffffff1916827bffffffffffffffffffffffffffffffffffffffffffffffffffffffff1916149050919050565b60006002600083815260200190815260200160002060009054906101000a900473ffffffffffffffffffffffffffffffffffffffff169050919050565b80806122255750600073ffffffffffffffffffffffffffffffffffffffff168273ffffffffffffffffffffffffffffffffffffffff1614155b1561235957600061223584611aac565b9050600073ffffffffffffffffffffffffffffffffffffffff168373ffffffffffffffffffffffffffffffffffffffff16141580156122a057508273ffffffffffffffffffffffffffffffffffffffff168173ffffffffffffffffffffffffffffffffffffffff1614155b80156122b357506122b18184611585565b155b156122f557826040517fa9fbf51f0000000000000000000000000000000000000000000000000000000081526004016122ec9190612b39565b60405180910390fd5b811561235757838573ffffffffffffffffffffffffffffffffffffffff168273ffffffffffffffffffffffffffffffffffffffff167f8c5be1e5ebec7d5bd14f71427d1e84f3dd0314c0f7b2291e5b200ac8c7c3b92560405160405180910390a45b505b836004600085815260200190815260200160002060006101000a81548173ffffffffffffffffffffffffffffffffffffffff021916908373ffffffffffffffffffffffffffffffffffffffff16021790555050505050565b6123bc838383612543565b61247057600073ffffffffffffffffffffffffffffffffffffffff168373ffffffffffffffffffffffffffffffffffffffff160361243157806040517f7e2732890000000000000000000000000000000000000000000000000000000081526004016124289190612ba3565b60405180910390fd5b81816040517f177e802f0000000000000000000000000000000000000000000000000000000081526004016124679291906134af565b60405180910390fd5b505050565b60606000600161248484612604565b01905060008167ffffffffffffffff8111156124a3576124a2612841565b5b6040519080825280601f01601f1916602001820160405280156124d55781602001600182028036833780820191505090505b509050600082602001820190505b600115612538578080600190039150507f3031323334353637383961626364656600000000000000000000000000000000600a86061a8153600a858161252c5761252b613839565b5b049450600085036124e3575b819350505050919050565b60008073ffffffffffffffffffffffffffffffffffffffff168373ffffffffffffffffffffffffffffffffffffffff16141580156125fb57508273ffffffffffffffffffffffffffffffffffffffff168473ffffffffffffffffffffffffffffffffffffffff1614806125bc57506125bb8484611585565b5b806125fa57508273ffffffffffffffffffffffffffffffffffffffff166125e283611b34565b73ffffffffffffffffffffffffffffffffffffffff16145b5b90509392505050565b600080600090507a184f03e93ff9f4daa797ed6e38ed64bf6a1f0100000000000000008310612662577a184f03e93ff9f4daa797ed6e38ed64bf6a1f010000000000000000838161265857612657613839565b5b0492506040810190505b6d04ee2d6d415b85acef8100000000831061269f576d04ee2d6d415b85acef8100000000838161269557612694613839565b5b0492506020810190505b662386f26fc1000083106126ce57662386f26fc1000083816126c4576126c3613839565b5b0492506010810190505b6305f5e10083106126f7576305f5e10083816126ed576126ec613839565b5b0492506008810190505b612710831061271c57612710838161271257612711613839565b5b0492506004810190505b6064831061273f576064838161273557612734613839565b5b0492506002810190505b600a831061274e576001810190505b80915050919050565b6000604051905090565b600080fd5b600080fd5b60007fffffffff0000000000000000000000000000000000000000000000000000000082169050919050565b6127a08161276b565b81146127ab57600080fd5b50565b6000813590506127bd81612797565b92915050565b6000602082840312156127d9576127d8612761565b5b60006127e7848285016127ae565b91505092915050565b60008115159050919050565b612805816127f0565b82525050565b600060208201905061282060008301846127fc565b92915050565b600080fd5b600080fd5b6000601f19601f8301169050919050565b7f4e487b7100000000000000000000000000000000000000000000000000000000600052604160045260246000fd5b61287982612830565b810181811067ffffffffffffffff8211171561289857612897612841565b5b80604052505050565b60006128ab612757565b90506128b78282612870565b919050565b600067ffffffffffffffff8211156128d7576128d6612841565b5b6128e082612830565b9050602081019050919050565b82818337600083830152505050565b600061290f61290a846128bc565b6128a1565b90508281526020810184848401111561292b5761292a61282b565b5b6129368482856128ed565b509392505050565b600082601f83011261295357612952612826565b5b81356129638482602086016128fc565b91505092915050565b600073ffffffffffffffffffffffffffffffffffffffff82169050919050565b60006129978261296c565b9050919050565b6129a78161298c565b81146129b257600080fd5b50565b6000813590506129c48161299e565b92915050565b600080604083850312156129e1576129e0612761565b5b600083013567ffffffffffffffff8111156129ff576129fe612766565b5b612a0b8582860161293e565b9250506020612a1c858286016129b5565b9150509250929050565b600081519050919050565b600082825260208201905092915050565b60005b83811015612a60578082015181840152602081019050612a45565b60008484015250505050565b6000612a7782612a26565b612a818185612a31565b9350612a91818560208601612a42565b612a9a81612830565b840191505092915050565b60006020820190508181036000830152612abf8184612a6c565b905092915050565b6000819050919050565b612ada81612ac7565b8114612ae557600080fd5b50565b600081359050612af781612ad1565b92915050565b600060208284031215612b1357612b12612761565b5b6000612b2184828501612ae8565b91505092915050565b612b338161298c565b82525050565b6000602082019050612b4e6000830184612b2a565b92915050565b60008060408385031215612b6b57612b6a612761565b5b6000612b79858286016129b5565b9250506020612b8a85828601612ae8565b9150509250929050565b612b9d81612ac7565b82525050565b6000602082019050612bb86000830184612b94565b92915050565b600080600060608486031215612bd757612bd6612761565b5b6000612be5868287016129b5565b9350506020612bf6868287016129b5565b9250506040612c0786828701612ae8565b9150509250925092565b600060208284031215612c2757612c26612761565b5b6000612c35848285016129b5565b91505092915050565b60008060408385031215612c5557612c54612761565b5b6000612c6385828601612ae8565b9250506020612c7485828601612ae8565b9150509250929050565b600081519050919050565b600082825260208201905092915050565b6000819050602082019050919050565b612cb38161298c565b82525050565b6000612cc58383612caa565b60208301905092915050565b6000602082019050919050565b6000612ce982612c7e565b612cf38185612c89565b9350612cfe83612c9a565b8060005b83811015612d2f578151612d168882612cb9565b9750612d2183612cd1565b925050600181019050612d02565b5085935050505092915050565b60006060820190508181036000830152612d568186612cde565b9050612d656020830185612b94565b612d726040830184612b94565b949350505050565b612d83816127f0565b8114612d8e57600080fd5b50565b600081359050612da081612d7a565b92915050565b60008060408385031215612dbd57612dbc612761565b5b6000612dcb858286016129b5565b9250506020612ddc85828601612d91565b9150509250929050565b600067ffffffffffffffff821115612e0157612e00612841565b5b612e0a82612830565b9050602081019050919050565b6000612e2a612e2584612de6565b6128a1565b905082815260208101848484011115612e4657612e4561282b565b5b612e518482856128ed565b509392505050565b600082601f830112612e6e57612e6d612826565b5b8135612e7e848260208601612e17565b91505092915050565b60008060008060808587031215612ea157612ea0612761565b5b6000612eaf878288016129b5565b9450506020612ec0878288016129b5565b9350506040612ed187828801612ae8565b925050606085013567ffffffffffffffff811115612ef257612ef1612766565b5b612efe87828801612e59565b91505092959194509250565b60008060408385031215612f2157612f20612761565b5b6000612f2f858286016129b5565b9250506020612f40858286016129b5565b9150509250929050565b7f41756374696f6e20656e64656400000000000000000000000000000000000000600082015250565b6000612f80600d83612a31565b9150612f8b82612f4a565b602082019050919050565b60006020820190508181036000830152612faf81612f73565b9050919050565b7f4e6f204554482073656e74000000000000000000000000000000000000000000600082015250565b6000612fec600b83612a31565b9150612ff782612fb6565b602082019050919050565b6000602082019050818103600083015261301b81612fdf565b9050919050565b7f4e487b7100000000000000000000000000000000000000000000000000000000600052601160045260246000fd5b600061305c82612ac7565b915061306783612ac7565b925082820190508082111561307f5761307e613022565b5b92915050565b7f41756374696f6e206e6f742079657420656e6465640000000000000000000000600082015250565b60006130bb601583612a31565b91506130c682613085565b602082019050919050565b600060208201905081810360008301526130ea816130ae565b9050919050565b7f4f6e6c79206f776e657200000000000000000000000000000000000000000000600082015250565b6000613127600a83612a31565b9150613132826130f1565b602082019050919050565b600060208201905081810360008301526131568161311a565b9050919050565b7f4f6e6c792077696e6e65722063616e206d696e74000000000000000000000000600082015250565b6000613193601483612a31565b915061319e8261315d565b602082019050919050565b600060208201905081810360008301526131c281613186565b9050919050565b7f416c7265616479206d696e746564000000000000000000000000000000000000600082015250565b60006131ff600e83612a31565b915061320a826131c9565b602082019050919050565b6000602082019050818103600083015261322e816131f2565b9050919050565b600061324082612ac7565b91507fffffffffffffffffffffffffffffffffffffffffffffffffffffffffffffffff820361327257613271613022565b5b600182019050919050565b7f4e487b7100000000000000000000000000000000000000000000000000000000600052602260045260246000fd5b600060028204905060018216806132c457607f821691505b6020821081036132d7576132d661327d565b5b50919050565b60006060820190506132f26000830186612b2a565b6132ff6020830185612b94565b61330c6040830184612b2a565b949350505050565b7f41756374696f6e206e6f7420656e646564000000000000000000000000000000600082015250565b600061334a601183612a31565b915061335582613314565b602082019050919050565b600060208201905081810360008301526133798161333d565b9050919050565b7f4e487b7100000000000000000000000000000000000000000000000000000000600052603260045260246000fd5b60006133ba82612ac7565b91506133c583612ac7565b92508282039050818111156133dd576133dc613022565b5b92915050565b600081905092915050565b60006133f982612a26565b61340381856133e3565b9350613413818560208601612a42565b80840191505092915050565b600061342b82856133ee565b915061343782846133ee565b91508190509392505050565b7f416c726561647920656e64656400000000000000000000000000000000000000600082015250565b6000613479600d83612a31565b915061348482613443565b602082019050919050565b600060208201905081810360008301526134a88161346c565b9050919050565b60006040820190506134c46000830185612b2a565b6134d16020830184612b94565b9392505050565b60008190508160005260206000209050919050565b60006020601f8301049050919050565b600082821b905092915050565b60006008830261353a7fffffffffffffffffffffffffffffffffffffffffffffffffffffffffffffffff826134fd565b61354486836134fd565b95508019841693508086168417925050509392505050565b6000819050919050565b600061358161357c61357784612ac7565b61355c565b612ac7565b9050919050565b6000819050919050565b61359b83613566565b6135af6135a782613588565b84845461350a565b825550505050565b600090565b6135c46135b7565b6135cf818484613592565b505050565b5b818110156135f3576135e86000826135bc565b6001810190506135d5565b5050565b601f82111561363857613609816134d8565b613612846134ed565b81016020851015613621578190505b61363561362d856134ed565b8301826135d4565b50505b505050565b600082821c905092915050565b600061365b6000198460080261363d565b1980831691505092915050565b6000613674838361364a565b9150826002028217905092915050565b61368d82612a26565b67ffffffffffffffff8111156136a6576136a5612841565b5b6136b082546132ac565b6136bb8282856135f7565b600060209050601f8311600181146136ee57600084156136dc578287015190505b6136e68582613668565b86555061374e565b601f1984166136fc866134d8565b60005b82811015613724578489015182556001820191506020850194506020810190506136ff565b86831015613741578489015161373d601f89168261364a565b8355505b6001600288020188555050505b505050505050565b600081519050919050565b600082825260208201905092915050565b600061377d82613756565b6137878185613761565b9350613797818560208601612a42565b6137a081612830565b840191505092915050565b60006080820190506137c06000830187612b2a565b6137cd6020830186612b2a565b6137da6040830185612b94565b81810360608301526137ec8184613772565b905095945050505050565b60008151905061380681612797565b92915050565b60006020828403121561382257613821612761565b5b6000613830848285016137f7565b91505092915050565b7f4e487b7100000000000000000000000000000000000000000000000000000000600052601260045260246000fdfea264697066735822122039b75dc12999d15e795c7296368e9badd788ec4c23d30cc259fb15f04080e74b64736f6c63430008180033",
  "linkReferences": {},
  "deployedLinkReferences": {}
}